{
  "_format": "hh-sol-artifact-1",
  "contractName": "CNFT",
  "sourceName": "contracts/cnft.sol",
  "abi": [
    {
      "inputs": [
        {
          "internalType": "address",
          "name": "initialOwner",
          "type": "address"
        }
      ],
      "stateMutability": "nonpayable",
      "type": "constructor"
    },
    {
      "inputs": [
        {
          "internalType": "address",
          "name": "sender",
          "type": "address"
        },
        {
          "internalType": "uint256",
          "name": "tokenId",
          "type": "uint256"
        },
        {
          "internalType": "address",
          "name": "owner",
          "type": "address"
        }
      ],
      "name": "ERC721IncorrectOwner",
      "type": "error"
    },
    {
      "inputs": [
        {
          "internalType": "address",
          "name": "operator",
          "type": "address"
        },
        {
          "internalType": "uint256",
          "name": "tokenId",
          "type": "uint256"
        }
      ],
      "name": "ERC721InsufficientApproval",
      "type": "error"
    },
    {
      "inputs": [
        {
          "internalType": "address",
          "name": "approver",
          "type": "address"
        }
      ],
      "name": "ERC721InvalidApprover",
      "type": "error"
    },
    {
      "inputs": [
        {
          "internalType": "address",
          "name": "operator",
          "type": "address"
        }
      ],
      "name": "ERC721InvalidOperator",
      "type": "error"
    },
    {
      "inputs": [
        {
          "internalType": "address",
          "name": "owner",
          "type": "address"
        }
      ],
      "name": "ERC721InvalidOwner",
      "type": "error"
    },
    {
      "inputs": [
        {
          "internalType": "address",
          "name": "receiver",
          "type": "address"
        }
      ],
      "name": "ERC721InvalidReceiver",
      "type": "error"
    },
    {
      "inputs": [
        {
          "internalType": "address",
          "name": "sender",
          "type": "address"
        }
      ],
      "name": "ERC721InvalidSender",
      "type": "error"
    },
    {
      "inputs": [
        {
          "internalType": "uint256",
          "name": "tokenId",
          "type": "uint256"
        }
      ],
      "name": "ERC721NonexistentToken",
      "type": "error"
    },
    {
      "inputs": [
        {
          "internalType": "address",
          "name": "owner",
          "type": "address"
        }
      ],
      "name": "OwnableInvalidOwner",
      "type": "error"
    },
    {
      "inputs": [
        {
          "internalType": "address",
          "name": "account",
          "type": "address"
        }
      ],
      "name": "OwnableUnauthorizedAccount",
      "type": "error"
    },
    {
      "anonymous": false,
      "inputs": [
        {
          "indexed": true,
          "internalType": "address",
          "name": "owner",
          "type": "address"
        },
        {
          "indexed": true,
          "internalType": "address",
          "name": "approved",
          "type": "address"
        },
        {
          "indexed": true,
          "internalType": "uint256",
          "name": "tokenId",
          "type": "uint256"
        }
      ],
      "name": "Approval",
      "type": "event"
    },
    {
      "anonymous": false,
      "inputs": [
        {
          "indexed": true,
          "internalType": "address",
          "name": "owner",
          "type": "address"
        },
        {
          "indexed": true,
          "internalType": "address",
          "name": "operator",
          "type": "address"
        },
        {
          "indexed": false,
          "internalType": "bool",
          "name": "approved",
          "type": "bool"
        }
      ],
      "name": "ApprovalForAll",
      "type": "event"
    },
    {
      "anonymous": false,
      "inputs": [
        {
          "indexed": false,
          "internalType": "uint256",
          "name": "_fromTokenId",
          "type": "uint256"
        },
        {
          "indexed": false,
          "internalType": "uint256",
          "name": "_toTokenId",
          "type": "uint256"
        }
      ],
      "name": "BatchMetadataUpdate",
      "type": "event"
    },
    {
      "anonymous": false,
      "inputs": [
        {
          "indexed": false,
          "internalType": "uint256",
          "name": "_tokenId",
          "type": "uint256"
        }
      ],
      "name": "MetadataUpdate",
      "type": "event"
    },
    {
      "anonymous": false,
      "inputs": [
        {
          "indexed": true,
          "internalType": "address",
          "name": "previousOwner",
          "type": "address"
        },
        {
          "indexed": true,
          "internalType": "address",
          "name": "newOwner",
          "type": "address"
        }
      ],
      "name": "OwnershipTransferred",
      "type": "event"
    },
    {
      "anonymous": false,
      "inputs": [
        {
          "indexed": true,
          "internalType": "address",
          "name": "from",
          "type": "address"
        },
        {
          "indexed": true,
          "internalType": "address",
          "name": "to",
          "type": "address"
        },
        {
          "indexed": true,
          "internalType": "uint256",
          "name": "tokenId",
          "type": "uint256"
        }
      ],
      "name": "Transfer",
      "type": "event"
    },
    {
      "inputs": [
        {
          "internalType": "address",
          "name": "to",
          "type": "address"
        },
        {
          "internalType": "uint256",
          "name": "tokenId",
          "type": "uint256"
        }
      ],
      "name": "approve",
      "outputs": [],
      "stateMutability": "nonpayable",
      "type": "function"
    },
    {
      "inputs": [
        {
          "internalType": "address",
          "name": "owner",
          "type": "address"
        }
      ],
      "name": "balanceOf",
      "outputs": [
        {
          "internalType": "uint256",
          "name": "",
          "type": "uint256"
        }
      ],
      "stateMutability": "view",
      "type": "function"
    },
    {
      "inputs": [
        {
          "internalType": "uint256",
          "name": "tokenId",
          "type": "uint256"
        }
      ],
      "name": "getApproved",
      "outputs": [
        {
          "internalType": "address",
          "name": "",
          "type": "address"
        }
      ],
      "stateMutability": "view",
      "type": "function"
    },
    {
      "inputs": [
        {
          "internalType": "address",
          "name": "owner",
          "type": "address"
        },
        {
          "internalType": "address",
          "name": "operator",
          "type": "address"
        }
      ],
      "name": "isApprovedForAll",
      "outputs": [
        {
          "internalType": "bool",
          "name": "",
          "type": "bool"
        }
      ],
      "stateMutability": "view",
      "type": "function"
    },
    {
      "inputs": [
        {
          "internalType": "string",
          "name": "uri",
          "type": "string"
        }
      ],
      "name": "isContentOwned",
      "outputs": [
        {
          "internalType": "bool",
          "name": "",
          "type": "bool"
        }
      ],
      "stateMutability": "view",
      "type": "function"
    },
    {
      "inputs": [],
      "name": "name",
      "outputs": [
        {
          "internalType": "string",
          "name": "",
          "type": "string"
        }
      ],
      "stateMutability": "view",
      "type": "function"
    },
    {
      "inputs": [],
      "name": "owner",
      "outputs": [
        {
          "internalType": "address",
          "name": "",
          "type": "address"
        }
      ],
      "stateMutability": "view",
      "type": "function"
    },
    {
      "inputs": [
        {
          "internalType": "uint256",
          "name": "tokenId",
          "type": "uint256"
        }
      ],
      "name": "ownerOf",
      "outputs": [
        {
          "internalType": "address",
          "name": "",
          "type": "address"
        }
      ],
      "stateMutability": "view",
      "type": "function"
    },
    {
      "inputs": [
        {
          "internalType": "address",
          "name": "recipient",
          "type": "address"
        },
        {
          "internalType": "string",
          "name": "metadataURI",
          "type": "string"
        }
      ],
      "name": "payToMint",
      "outputs": [
        {
          "internalType": "uint256",
          "name": "",
          "type": "uint256"
        }
      ],
      "stateMutability": "payable",
      "type": "function"
    },
    {
      "inputs": [],
      "name": "renounceOwnership",
      "outputs": [],
      "stateMutability": "nonpayable",
      "type": "function"
    },
    {
      "inputs": [
        {
          "internalType": "address",
          "name": "to",
          "type": "address"
        },
        {
          "internalType": "string",
          "name": "uri",
          "type": "string"
        }
      ],
      "name": "safeMint",
      "outputs": [],
      "stateMutability": "nonpayable",
      "type": "function"
    },
    {
      "inputs": [
        {
          "internalType": "address",
          "name": "from",
          "type": "address"
        },
        {
          "internalType": "address",
          "name": "to",
          "type": "address"
        },
        {
          "internalType": "uint256",
          "name": "tokenId",
          "type": "uint256"
        }
      ],
      "name": "safeTransferFrom",
      "outputs": [],
      "stateMutability": "nonpayable",
      "type": "function"
    },
    {
      "inputs": [
        {
          "internalType": "address",
          "name": "from",
          "type": "address"
        },
        {
          "internalType": "address",
          "name": "to",
          "type": "address"
        },
        {
          "internalType": "uint256",
          "name": "tokenId",
          "type": "uint256"
        },
        {
          "internalType": "bytes",
          "name": "data",
          "type": "bytes"
        }
      ],
      "name": "safeTransferFrom",
      "outputs": [],
      "stateMutability": "nonpayable",
      "type": "function"
    },
    {
      "inputs": [
        {
          "internalType": "address",
          "name": "operator",
          "type": "address"
        },
        {
          "internalType": "bool",
          "name": "approved",
          "type": "bool"
        }
      ],
      "name": "setApprovalForAll",
      "outputs": [],
      "stateMutability": "nonpayable",
      "type": "function"
    },
    {
      "inputs": [
        {
          "internalType": "bytes4",
          "name": "interfaceId",
          "type": "bytes4"
        }
      ],
      "name": "supportsInterface",
      "outputs": [
        {
          "internalType": "bool",
          "name": "",
          "type": "bool"
        }
      ],
      "stateMutability": "view",
      "type": "function"
    },
    {
      "inputs": [],
      "name": "symbol",
      "outputs": [
        {
          "internalType": "string",
          "name": "",
          "type": "string"
        }
      ],
      "stateMutability": "view",
      "type": "function"
    },
    {
      "inputs": [
        {
          "internalType": "uint256",
          "name": "tokenId",
          "type": "uint256"
        }
      ],
      "name": "tokenURI",
      "outputs": [
        {
          "internalType": "string",
          "name": "",
          "type": "string"
        }
      ],
      "stateMutability": "view",
      "type": "function"
    },
    {
      "inputs": [
        {
          "internalType": "address",
          "name": "from",
          "type": "address"
        },
        {
          "internalType": "address",
          "name": "to",
          "type": "address"
        },
        {
          "internalType": "uint256",
          "name": "tokenId",
          "type": "uint256"
        }
      ],
      "name": "transferFrom",
      "outputs": [],
      "stateMutability": "nonpayable",
      "type": "function"
    },
    {
      "inputs": [
        {
          "internalType": "address",
          "name": "newOwner",
          "type": "address"
        }
      ],
      "name": "transferOwnership",
      "outputs": [],
      "stateMutability": "nonpayable",
      "type": "function"
    }
  ],
  "bytecode": "0x60806040523480156200001157600080fd5b50604051620030f5380380620030f5833981810160405281019062000037919062000288565b806040518060400160405280600481526020017f434e4654000000000000000000000000000000000000000000000000000000008152506040518060400160405280600481526020017f434e4654000000000000000000000000000000000000000000000000000000008152508160009081620000b5919062000534565b508060019081620000c7919062000534565b505050600073ffffffffffffffffffffffffffffffffffffffff168173ffffffffffffffffffffffffffffffffffffffff16036200013f5760006040517f1e4fbdf70000000000000000000000000000000000000000000000000000000081526004016200013691906200062c565b60405180910390fd5b62000150816200015860201b60201c565b505062000649565b6000600760009054906101000a900473ffffffffffffffffffffffffffffffffffffffff16905081600760006101000a81548173ffffffffffffffffffffffffffffffffffffffff021916908373ffffffffffffffffffffffffffffffffffffffff1602179055508173ffffffffffffffffffffffffffffffffffffffff168173ffffffffffffffffffffffffffffffffffffffff167f8be0079c531659141344cd1fd0a4f28419497f9722a3daafe3b4186f6b6457e060405160405180910390a35050565b600080fd5b600073ffffffffffffffffffffffffffffffffffffffff82169050919050565b6000620002508262000223565b9050919050565b620002628162000243565b81146200026e57600080fd5b50565b600081519050620002828162000257565b92915050565b600060208284031215620002a157620002a06200021e565b5b6000620002b18482850162000271565b91505092915050565b600081519050919050565b7f4e487b7100000000000000000000000000000000000000000000000000000000600052604160045260246000fd5b7f4e487b7100000000000000000000000000000000000000000000000000000000600052602260045260246000fd5b600060028204905060018216806200033c57607f821691505b602082108103620003525762000351620002f4565b5b50919050565b60008190508160005260206000209050919050565b60006020601f8301049050919050565b600082821b905092915050565b600060088302620003bc7fffffffffffffffffffffffffffffffffffffffffffffffffffffffffffffffff826200037d565b620003c886836200037d565b95508019841693508086168417925050509392505050565b6000819050919050565b6000819050919050565b6000620004156200040f6200040984620003e0565b620003ea565b620003e0565b9050919050565b6000819050919050565b6200043183620003f4565b6200044962000440826200041c565b8484546200038a565b825550505050565b600090565b6200046062000451565b6200046d81848462000426565b505050565b5b8181101562000495576200048960008262000456565b60018101905062000473565b5050565b601f821115620004e457620004ae8162000358565b620004b9846200036d565b81016020851015620004c9578190505b620004e1620004d8856200036d565b83018262000472565b50505b505050565b600082821c905092915050565b60006200050960001984600802620004e9565b1980831691505092915050565b6000620005248383620004f6565b9150826002028217905092915050565b6200053f82620002ba565b67ffffffffffffffff8111156200055b576200055a620002c5565b5b62000567825462000323565b6200057482828562000499565b600060209050601f831160018114620005ac576000841562000597578287015190505b620005a3858262000516565b86555062000613565b601f198416620005bc8662000358565b60005b82811015620005e657848901518255600182019150602085019450602081019050620005bf565b8683101562000606578489015162000602601f891682620004f6565b8355505b6001600288020188555050505b505050505050565b620006268162000243565b82525050565b60006020820190506200064360008301846200061b565b92915050565b612a9c80620006596000396000f3fe6080604052600436106101145760003560e01c8063715018a6116100a0578063b88d4fde11610064578063b88d4fde146103b6578063c87b56dd146103df578063d204c45e1461041c578063e985e9c514610445578063f2fde38b1461048257610114565b8063715018a6146102e35780638da5cb5b146102fa57806395d89b41146103255780639f1cabc614610350578063a22cb4651461038d57610114565b806323b872dd116100e757806323b872dd146101e757806342842e0e14610210578063615fd9e2146102395780636352211e1461026957806370a08231146102a657610114565b806301ffc9a71461011957806306fdde0314610156578063081812fc14610181578063095ea7b3146101be575b600080fd5b34801561012557600080fd5b50610140600480360381019061013b9190611dbc565b6104ab565b60405161014d9190611e04565b60405180910390f35b34801561016257600080fd5b5061016b6104bd565b6040516101789190611eaf565b60405180910390f35b34801561018d57600080fd5b506101a860048036038101906101a39190611f07565b61054f565b6040516101b59190611f75565b60405180910390f35b3480156101ca57600080fd5b506101e560048036038101906101e09190611fbc565b61056b565b005b3480156101f357600080fd5b5061020e60048036038101906102099190611ffc565b610581565b005b34801561021c57600080fd5b5061023760048036038101906102329190611ffc565b610683565b005b610253600480360381019061024e9190612184565b6106a3565b60405161026091906121ef565b60405180910390f35b34801561027557600080fd5b50610290600480360381019061028b9190611f07565b6107d5565b60405161029d9190611f75565b60405180910390f35b3480156102b257600080fd5b506102cd60048036038101906102c8919061220a565b6107e7565b6040516102da91906121ef565b60405180910390f35b3480156102ef57600080fd5b506102f86108a1565b005b34801561030657600080fd5b5061030f6108b5565b60405161031c9190611f75565b60405180910390f35b34801561033157600080fd5b5061033a6108df565b6040516103479190611eaf565b60405180910390f35b34801561035c57600080fd5b5061037760048036038101906103729190612237565b610971565b6040516103849190611e04565b60405180910390f35b34801561039957600080fd5b506103b460048036038101906103af91906122ac565b6109ac565b005b3480156103c257600080fd5b506103dd60048036038101906103d8919061238d565b6109c2565b005b3480156103eb57600080fd5b5061040660048036038101906104019190611f07565b6109df565b6040516104139190611eaf565b60405180910390f35b34801561042857600080fd5b50610443600480360381019061043e9190612184565b6109f1565b005b34801561045157600080fd5b5061046c60048036038101906104679190612410565b610a2d565b6040516104799190611e04565b60405180910390f35b34801561048e57600080fd5b506104a960048036038101906104a4919061220a565b610ac1565b005b60006104b682610b47565b9050919050565b6060600080546104cc9061247f565b80601f01602080910402602001604051908101604052809291908181526020018280546104f89061247f565b80156105455780601f1061051a57610100808354040283529160200191610545565b820191906000526020600020905b81548152906001019060200180831161052857829003601f168201915b5050505050905090565b600061055a82610ba8565b5061056482610c30565b9050919050565b61057d8282610578610c6d565b610c75565b5050565b600073ffffffffffffffffffffffffffffffffffffffff168273ffffffffffffffffffffffffffffffffffffffff16036105f35760006040517f64a0ae920000000000000000000000000000000000000000000000000000000081526004016105ea9190611f75565b60405180910390fd5b60006106078383610602610c6d565b610c87565b90508373ffffffffffffffffffffffffffffffffffffffff168173ffffffffffffffffffffffffffffffffffffffff161461067d578382826040517f64283d7b000000000000000000000000000000000000000000000000000000008152600401610674939291906124b0565b60405180910390fd5b50505050565b61069e838383604051806020016040528060008152506109c2565b505050565b600060016009836040516106b79190612523565b908152602001604051809103902060009054906101000a900460ff1660ff1603610716576040517f08c379a000000000000000000000000000000000000000000000000000000000815260040161070d90612586565b60405180910390fd5b66b1a2bc2ec50000341015610760576040517f08c379a0000000000000000000000000000000000000000000000000000000008152600401610757906125f2565b60405180910390fd5b600060085490506008600081548092919061077a90612641565b919050555060016009846040516107919190612523565b908152602001604051809103902060006101000a81548160ff021916908360ff1602179055506107c18482610ea1565b6107cb8184610f9a565b8091505092915050565b60006107e082610ba8565b9050919050565b60008073ffffffffffffffffffffffffffffffffffffffff168273ffffffffffffffffffffffffffffffffffffffff160361085a5760006040517f89c62b640000000000000000000000000000000000000000000000000000000081526004016108519190611f75565b60405180910390fd5b600360008373ffffffffffffffffffffffffffffffffffffffff1673ffffffffffffffffffffffffffffffffffffffff168152602001908152602001600020549050919050565b6108a9610ff6565b6108b3600061107d565b565b6000600760009054906101000a900473ffffffffffffffffffffffffffffffffffffffff16905090565b6060600180546108ee9061247f565b80601f016020809104026020016040519081016040528092919081815260200182805461091a9061247f565b80156109675780601f1061093c57610100808354040283529160200191610967565b820191906000526020600020905b81548152906001019060200180831161094a57829003601f168201915b5050505050905090565b600060016009836040516109859190612523565b908152602001604051809103902060009054906101000a900460ff1660ff16149050919050565b6109be6109b7610c6d565b8383611143565b5050565b6109cd848484610581565b6109d9848484846112b2565b50505050565b60606109ea82611469565b9050919050565b6109f9610ff6565b600060086000815480929190610a0e90612641565b919050559050610a1e838261157c565b610a288183610f9a565b505050565b6000600560008473ffffffffffffffffffffffffffffffffffffffff1673ffffffffffffffffffffffffffffffffffffffff16815260200190815260200160002060008373ffffffffffffffffffffffffffffffffffffffff1673ffffffffffffffffffffffffffffffffffffffff16815260200190815260200160002060009054906101000a900460ff16905092915050565b610ac9610ff6565b600073ffffffffffffffffffffffffffffffffffffffff168173ffffffffffffffffffffffffffffffffffffffff1603610b3b5760006040517f1e4fbdf7000000000000000000000000000000000000000000000000000000008152600401610b329190611f75565b60405180910390fd5b610b448161107d565b50565b6000634906490660e01b7bffffffffffffffffffffffffffffffffffffffffffffffffffffffff1916827bffffffffffffffffffffffffffffffffffffffffffffffffffffffff19161480610ba15750610ba08261159a565b5b9050919050565b600080610bb48361167c565b9050600073ffffffffffffffffffffffffffffffffffffffff168173ffffffffffffffffffffffffffffffffffffffff1603610c2757826040517f7e273289000000000000000000000000000000000000000000000000000000008152600401610c1e91906121ef565b60405180910390fd5b80915050919050565b60006004600083815260200190815260200160002060009054906101000a900473ffffffffffffffffffffffffffffffffffffffff169050919050565b600033905090565b610c8283838360016116b9565b505050565b600080610c938461167c565b9050600073ffffffffffffffffffffffffffffffffffffffff168373ffffffffffffffffffffffffffffffffffffffff1614610cd557610cd481848661187e565b5b600073ffffffffffffffffffffffffffffffffffffffff168173ffffffffffffffffffffffffffffffffffffffff1614610d6657610d176000856000806116b9565b6001600360008373ffffffffffffffffffffffffffffffffffffffff1673ffffffffffffffffffffffffffffffffffffffff168152602001908152602001600020600082825403925050819055505b600073ffffffffffffffffffffffffffffffffffffffff168573ffffffffffffffffffffffffffffffffffffffff1614610de9576001600360008773ffffffffffffffffffffffffffffffffffffffff1673ffffffffffffffffffffffffffffffffffffffff168152602001908152602001600020600082825401925050819055505b846002600086815260200190815260200160002060006101000a81548173ffffffffffffffffffffffffffffffffffffffff021916908373ffffffffffffffffffffffffffffffffffffffff160217905550838573ffffffffffffffffffffffffffffffffffffffff168273ffffffffffffffffffffffffffffffffffffffff167fddf252ad1be2c89b69c2b068fc378daa952ba7f163c4a11628f55a4df523b3ef60405160405180910390a4809150509392505050565b600073ffffffffffffffffffffffffffffffffffffffff168273ffffffffffffffffffffffffffffffffffffffff1603610f135760006040517f64a0ae92000000000000000000000000000000000000000000000000000000008152600401610f0a9190611f75565b60405180910390fd5b6000610f2183836000610c87565b9050600073ffffffffffffffffffffffffffffffffffffffff168173ffffffffffffffffffffffffffffffffffffffff1614610f955760006040517f73c6ac6e000000000000000000000000000000000000000000000000000000008152600401610f8c9190611f75565b60405180910390fd5b505050565b80600660008481526020019081526020016000209081610fba9190612835565b507ff8e1a15aba9398e019f0b49df1a4fde98ee17ae345cb5f6b5e2c27f5033e8ce782604051610fea91906121ef565b60405180910390a15050565b610ffe610c6d565b73ffffffffffffffffffffffffffffffffffffffff1661101c6108b5565b73ffffffffffffffffffffffffffffffffffffffff161461107b5761103f610c6d565b6040517f118cdaa70000000000000000000000000000000000000000000000000000000081526004016110729190611f75565b60405180910390fd5b565b6000600760009054906101000a900473ffffffffffffffffffffffffffffffffffffffff16905081600760006101000a81548173ffffffffffffffffffffffffffffffffffffffff021916908373ffffffffffffffffffffffffffffffffffffffff1602179055508173ffffffffffffffffffffffffffffffffffffffff168173ffffffffffffffffffffffffffffffffffffffff167f8be0079c531659141344cd1fd0a4f28419497f9722a3daafe3b4186f6b6457e060405160405180910390a35050565b600073ffffffffffffffffffffffffffffffffffffffff168273ffffffffffffffffffffffffffffffffffffffff16036111b457816040517f5b08ba180000000000000000000000000000000000000000000000000000000081526004016111ab9190611f75565b60405180910390fd5b80600560008573ffffffffffffffffffffffffffffffffffffffff1673ffffffffffffffffffffffffffffffffffffffff16815260200190815260200160002060008473ffffffffffffffffffffffffffffffffffffffff1673ffffffffffffffffffffffffffffffffffffffff16815260200190815260200160002060006101000a81548160ff0219169083151502179055508173ffffffffffffffffffffffffffffffffffffffff168373ffffffffffffffffffffffffffffffffffffffff167f17307eab39ab6107e8899845ad3d59bd9653f200f220920489ca2b5937696c31836040516112a59190611e04565b60405180910390a3505050565b60008373ffffffffffffffffffffffffffffffffffffffff163b1115611463578273ffffffffffffffffffffffffffffffffffffffff1663150b7a026112f6610c6d565b8685856040518563ffffffff1660e01b8152600401611318949392919061295c565b6020604051808303816000875af192505050801561135457506040513d601f19601f8201168201806040525081019061135191906129bd565b60015b6113d8573d8060008114611384576040519150601f19603f3d011682016040523d82523d6000602084013e611389565b606091505b5060008151036113d057836040517f64a0ae920000000000000000000000000000000000000000000000000000000081526004016113c79190611f75565b60405180910390fd5b805181602001fd5b63150b7a0260e01b7bffffffffffffffffffffffffffffffffffffffffffffffffffffffff1916817bffffffffffffffffffffffffffffffffffffffffffffffffffffffff19161461146157836040517f64a0ae920000000000000000000000000000000000000000000000000000000081526004016114589190611f75565b60405180910390fd5b505b50505050565b606061147482610ba8565b5060006006600084815260200190815260200160002080546114959061247f565b80601f01602080910402602001604051908101604052809291908181526020018280546114c19061247f565b801561150e5780601f106114e35761010080835404028352916020019161150e565b820191906000526020600020905b8154815290600101906020018083116114f157829003601f168201915b50505050509050600061151f611942565b90506000815103611534578192505050611577565b6000825111156115695780826040516020016115519291906129ea565b60405160208183030381529060405292505050611577565b6115728461197f565b925050505b919050565b6115968282604051806020016040528060008152506119e8565b5050565b60007f80ac58cd000000000000000000000000000000000000000000000000000000007bffffffffffffffffffffffffffffffffffffffffffffffffffffffff1916827bffffffffffffffffffffffffffffffffffffffffffffffffffffffff1916148061166557507f5b5e139f000000000000000000000000000000000000000000000000000000007bffffffffffffffffffffffffffffffffffffffffffffffffffffffff1916827bffffffffffffffffffffffffffffffffffffffffffffffffffffffff1916145b80611675575061167482611a04565b5b9050919050565b60006002600083815260200190815260200160002060009054906101000a900473ffffffffffffffffffffffffffffffffffffffff169050919050565b80806116f25750600073ffffffffffffffffffffffffffffffffffffffff168273ffffffffffffffffffffffffffffffffffffffff1614155b1561182657600061170284610ba8565b9050600073ffffffffffffffffffffffffffffffffffffffff168373ffffffffffffffffffffffffffffffffffffffff161415801561176d57508273ffffffffffffffffffffffffffffffffffffffff168173ffffffffffffffffffffffffffffffffffffffff1614155b8015611780575061177e8184610a2d565b155b156117c257826040517fa9fbf51f0000000000000000000000000000000000000000000000000000000081526004016117b99190611f75565b60405180910390fd5b811561182457838573ffffffffffffffffffffffffffffffffffffffff168273ffffffffffffffffffffffffffffffffffffffff167f8c5be1e5ebec7d5bd14f71427d1e84f3dd0314c0f7b2291e5b200ac8c7c3b92560405160405180910390a45b505b836004600085815260200190815260200160002060006101000a81548173ffffffffffffffffffffffffffffffffffffffff021916908373ffffffffffffffffffffffffffffffffffffffff16021790555050505050565b611889838383611a6e565b61193d57600073ffffffffffffffffffffffffffffffffffffffff168373ffffffffffffffffffffffffffffffffffffffff16036118fe57806040517f7e2732890000000000000000000000000000000000000000000000000000000081526004016118f591906121ef565b60405180910390fd5b81816040517f177e802f000000000000000000000000000000000000000000000000000000008152600401611934929190612a0e565b60405180910390fd5b505050565b60606040518060400160405280600781526020017f697066733a2f2f00000000000000000000000000000000000000000000000000815250905090565b606061198a82610ba8565b506000611995611942565b905060008151116119b557604051806020016040528060008152506119e0565b806119bf84611b2f565b6040516020016119d09291906129ea565b6040516020818303038152906040525b915050919050565b6119f28383610ea1565b6119ff60008484846112b2565b505050565b60007f01ffc9a7000000000000000000000000000000000000000000000000000000007bffffffffffffffffffffffffffffffffffffffffffffffffffffffff1916827bffffffffffffffffffffffffffffffffffffffffffffffffffffffff1916149050919050565b60008073ffffffffffffffffffffffffffffffffffffffff168373ffffffffffffffffffffffffffffffffffffffff1614158015611b2657508273ffffffffffffffffffffffffffffffffffffffff168473ffffffffffffffffffffffffffffffffffffffff161480611ae75750611ae68484610a2d565b5b80611b2557508273ffffffffffffffffffffffffffffffffffffffff16611b0d83610c30565b73ffffffffffffffffffffffffffffffffffffffff16145b5b90509392505050565b606060006001611b3e84611bfd565b01905060008167ffffffffffffffff811115611b5d57611b5c612059565b5b6040519080825280601f01601f191660200182016040528015611b8f5781602001600182028036833780820191505090505b509050600082602001820190505b600115611bf2578080600190039150507f3031323334353637383961626364656600000000000000000000000000000000600a86061a8153600a8581611be657611be5612a37565b5b04945060008503611b9d575b819350505050919050565b600080600090507a184f03e93ff9f4daa797ed6e38ed64bf6a1f0100000000000000008310611c5b577a184f03e93ff9f4daa797ed6e38ed64bf6a1f0100000000000000008381611c5157611c50612a37565b5b0492506040810190505b6d04ee2d6d415b85acef81000000008310611c98576d04ee2d6d415b85acef81000000008381611c8e57611c8d612a37565b5b0492506020810190505b662386f26fc100008310611cc757662386f26fc100008381611cbd57611cbc612a37565b5b0492506010810190505b6305f5e1008310611cf0576305f5e1008381611ce657611ce5612a37565b5b0492506008810190505b6127108310611d15576127108381611d0b57611d0a612a37565b5b0492506004810190505b60648310611d385760648381611d2e57611d2d612a37565b5b0492506002810190505b600a8310611d47576001810190505b80915050919050565b6000604051905090565b600080fd5b600080fd5b60007fffffffff0000000000000000000000000000000000000000000000000000000082169050919050565b611d9981611d64565b8114611da457600080fd5b50565b600081359050611db681611d90565b92915050565b600060208284031215611dd257611dd1611d5a565b5b6000611de084828501611da7565b91505092915050565b60008115159050919050565b611dfe81611de9565b82525050565b6000602082019050611e196000830184611df5565b92915050565b600081519050919050565b600082825260208201905092915050565b60005b83811015611e59578082015181840152602081019050611e3e565b60008484015250505050565b6000601f19601f8301169050919050565b6000611e8182611e1f565b611e8b8185611e2a565b9350611e9b818560208601611e3b565b611ea481611e65565b840191505092915050565b60006020820190508181036000830152611ec98184611e76565b905092915050565b6000819050919050565b611ee481611ed1565b8114611eef57600080fd5b50565b600081359050611f0181611edb565b92915050565b600060208284031215611f1d57611f1c611d5a565b5b6000611f2b84828501611ef2565b91505092915050565b600073ffffffffffffffffffffffffffffffffffffffff82169050919050565b6000611f5f82611f34565b9050919050565b611f6f81611f54565b82525050565b6000602082019050611f8a6000830184611f66565b92915050565b611f9981611f54565b8114611fa457600080fd5b50565b600081359050611fb681611f90565b92915050565b60008060408385031215611fd357611fd2611d5a565b5b6000611fe185828601611fa7565b9250506020611ff285828601611ef2565b9150509250929050565b60008060006060848603121561201557612014611d5a565b5b600061202386828701611fa7565b935050602061203486828701611fa7565b925050604061204586828701611ef2565b9150509250925092565b600080fd5b600080fd5b7f4e487b7100000000000000000000000000000000000000000000000000000000600052604160045260246000fd5b61209182611e65565b810181811067ffffffffffffffff821117156120b0576120af612059565b5b80604052505050565b60006120c3611d50565b90506120cf8282612088565b919050565b600067ffffffffffffffff8211156120ef576120ee612059565b5b6120f882611e65565b9050602081019050919050565b82818337600083830152505050565b6000612127612122846120d4565b6120b9565b90508281526020810184848401111561214357612142612054565b5b61214e848285612105565b509392505050565b600082601f83011261216b5761216a61204f565b5b813561217b848260208601612114565b91505092915050565b6000806040838503121561219b5761219a611d5a565b5b60006121a985828601611fa7565b925050602083013567ffffffffffffffff8111156121ca576121c9611d5f565b5b6121d685828601612156565b9150509250929050565b6121e981611ed1565b82525050565b600060208201905061220460008301846121e0565b92915050565b6000602082840312156122205761221f611d5a565b5b600061222e84828501611fa7565b91505092915050565b60006020828403121561224d5761224c611d5a565b5b600082013567ffffffffffffffff81111561226b5761226a611d5f565b5b61227784828501612156565b91505092915050565b61228981611de9565b811461229457600080fd5b50565b6000813590506122a681612280565b92915050565b600080604083850312156122c3576122c2611d5a565b5b60006122d185828601611fa7565b92505060206122e285828601612297565b9150509250929050565b600067ffffffffffffffff82111561230757612306612059565b5b61231082611e65565b9050602081019050919050565b600061233061232b846122ec565b6120b9565b90508281526020810184848401111561234c5761234b612054565b5b612357848285612105565b509392505050565b600082601f8301126123745761237361204f565b5b813561238484826020860161231d565b91505092915050565b600080600080608085870312156123a7576123a6611d5a565b5b60006123b587828801611fa7565b94505060206123c687828801611fa7565b93505060406123d787828801611ef2565b925050606085013567ffffffffffffffff8111156123f8576123f7611d5f565b5b6124048782880161235f565b91505092959194509250565b6000806040838503121561242757612426611d5a565b5b600061243585828601611fa7565b925050602061244685828601611fa7565b9150509250929050565b7f4e487b7100000000000000000000000000000000000000000000000000000000600052602260045260246000fd5b6000600282049050600182168061249757607f821691505b6020821081036124aa576124a9612450565b5b50919050565b60006060820190506124c56000830186611f66565b6124d260208301856121e0565b6124df6040830184611f66565b949350505050565b600081905092915050565b60006124fd82611e1f565b61250781856124e7565b9350612517818560208601611e3b565b80840191505092915050565b600061252f82846124f2565b915081905092915050565b7f4e465420616c7265616479206d696e7465642100000000000000000000000000600082015250565b6000612570601383611e2a565b915061257b8261253a565b602082019050919050565b6000602082019050818103600083015261259f81612563565b9050919050565b7f20596f75204e65656420546f2050617920757021000000000000000000000000600082015250565b60006125dc601483611e2a565b91506125e7826125a6565b602082019050919050565b6000602082019050818103600083015261260b816125cf565b9050919050565b7f4e487b7100000000000000000000000000000000000000000000000000000000600052601160045260246000fd5b600061264c82611ed1565b91507fffffffffffffffffffffffffffffffffffffffffffffffffffffffffffffffff820361267e5761267d612612565b5b600182019050919050565b60008190508160005260206000209050919050565b60006020601f8301049050919050565b600082821b905092915050565b6000600883026126eb7fffffffffffffffffffffffffffffffffffffffffffffffffffffffffffffffff826126ae565b6126f586836126ae565b95508019841693508086168417925050509392505050565b6000819050919050565b600061273261272d61272884611ed1565b61270d565b611ed1565b9050919050565b6000819050919050565b61274c83612717565b61276061275882612739565b8484546126bb565b825550505050565b600090565b612775612768565b612780818484612743565b505050565b5b818110156127a45761279960008261276d565b600181019050612786565b5050565b601f8211156127e9576127ba81612689565b6127c38461269e565b810160208510156127d2578190505b6127e66127de8561269e565b830182612785565b50505b505050565b600082821c905092915050565b600061280c600019846008026127ee565b1980831691505092915050565b600061282583836127fb565b9150826002028217905092915050565b61283e82611e1f565b67ffffffffffffffff81111561285757612856612059565b5b612861825461247f565b61286c8282856127a8565b600060209050601f83116001811461289f576000841561288d578287015190505b6128978582612819565b8655506128ff565b601f1984166128ad86612689565b60005b828110156128d5578489015182556001820191506020850194506020810190506128b0565b868310156128f257848901516128ee601f8916826127fb565b8355505b6001600288020188555050505b505050505050565b600081519050919050565b600082825260208201905092915050565b600061292e82612907565b6129388185612912565b9350612948818560208601611e3b565b61295181611e65565b840191505092915050565b60006080820190506129716000830187611f66565b61297e6020830186611f66565b61298b60408301856121e0565b818103606083015261299d8184612923565b905095945050505050565b6000815190506129b781611d90565b92915050565b6000602082840312156129d3576129d2611d5a565b5b60006129e1848285016129a8565b91505092915050565b60006129f682856124f2565b9150612a0282846124f2565b91508190509392505050565b6000604082019050612a236000830185611f66565b612a3060208301846121e0565b9392505050565b7f4e487b7100000000000000000000000000000000000000000000000000000000600052601260045260246000fdfea2646970667358221220226879c49c932979f0f0d4182a705b96e83f46bdac77cff465d270b1f14a1aae64736f6c63430008140033",
  "linkReferences": {},
  "deployedLinkReferences": {}
}